:020000040800F2
:1000000000000120D5170008251800082518000851
:100010002518000825180008251800080000000011
:10002000000000000000000000000000251800088B
:1000300025180008000000002518000825180008F1
:10004000251800082518000825180008251800089C
:10005000251800082518000825180008251800088C
:10006000251800082518000825180008251800087C
:10007000251800082518000825180008251800086C
:1000800025180008251800082518000800000000A1
:10009000000000000000000000000000251800081B
:1000A000251800082518000825180008251800083C
:1000B000251800082518000825180008251800082C
:1000C000251800082518000825180008251800081C
:1000D0002518000825180008251800080000000051
:1000E0002518000825180008251800080000000041
:1000F00000000000000000000000000025180008BB
:100100000000000025180008251800082518000820
:1001100000000000000000000000000000000000DF
:10012000A111000825180008251800082518000846
:10013000251800080000000000000000000000007A
:10014000000000000000000000000000251800086A
:10015000251800082518000825180008251800088B
:100160002518000825180008000000000000000005
:10017000000000000000000000000000000000007F
:10018000000000002518000800000000000000002A
:040190002518000826
:1001980010B5054C237833B9044B13B10448AFF3B9
:1001A80000800123237010BD6C00002000000000B7
:1001B800941C000808B5034B1BB103490348AFF36F
:1001C800008008BD0000000070000020941C00089A
:1001D80081F0004102E000BF83F0004330B54FEAF0
:1001E80041044FEA430594EA050F08BF90EA020F5D
:1001F8001FBF54EA000C55EA020C7FEA645C7FEAF0
:10020800655C00F0E2804FEA5454D4EB5555B8BF12
:100218006D420CDD2C4480EA020281EA030382EA83
:10022800000083EA010180EA020281EA0303362D15
:1002380088BF30BD11F0004F4FEA01314FF4801CE8
:100248004CEA113102D0404261EB410113F0004FFA
:100258004FEA03334CEA133302D0524263EB4303B1
:1002680094EA050F00F0A780A4F10104D5F1200E4F
:100278000DDB02FA0EFC22FA05F2801841F10001AA
:1002880003FA0EF2801843FA05F359410EE0A5F17E
:1002980020050EF1200E012A03FA0EFC28BF4CF0AF
:1002A800020C43FA05F3C01851EBE37101F0004565
:1002B80007D54FF0000EDCF1000C7EEB00006EEB72
:1002C8000101B1F5801F1BD3B1F5001F0CD34908FC
:1002D8005FEA30004FEA3C0C04F101044FEA445253
:1002E80012F5800F80F09A80BCF1004F08BF5FEADA
:1002F800500C50F1000041EB045141EA050130BDBA
:100308005FEA4C0C404141EB0101013C28BFB1F5CB
:10031800801FE9D291F0000F04BF01460020B1FA16
:1003280081F308BF2033A3F10B03B3F120020CDAE9
:100338000C3208DD02F1140CC2F10C0201FA0CF0C7
:1003480021FA02F10CE002F11402D8BFC2F1200C2C
:1003580001FA02F120FA0CFCDCBF41EA0C019040E2
:10036800E41AA2BF01EB0451294330BD6FEA04042B
:100378001F3C1CDA0C340EDC04F11404C4F1200216
:1003880020FA04F001FA02F340EA030021FA04F328
:1003980045EA030130BDC4F10C04C4F1200220FA7F
:1003A80002F001FA04F340EA0300294630BD21FABD
:1003B80004F0294630BD94F0000F83F4801306BF83
:1003C80081F480110134013D4EE77FEA645C18BF77
:1003D8007FEA655C29D094EA050F08BF90EA020F0E
:1003E80005D054EA000C04BF1946104630BD91EA06
:1003F800030F1EBF0021002030BD5FEA545C05D109
:100408004000494128BF41F0004130BD14F5800447
:100418003CBF01F5801130BD01F0004545F0FE41BB
:1004280041F470014FF0000030BD7FEA645C1ABFF0
:10043800194610467FEA655C1CBF0B46024650EA27
:10044800013406BF52EA033591EA030F41F4002153
:1004580030BD00BF90F0000F04BF0021704730B5D9
:100468004FF4806404F132044FF000054FF00001AE
:1004780050E700BF90F0000F04BF0021704730B56F
:100488004FF4806404F1320410F0004548BF404244
:100498004FF000013EE700BF42004FEAE2014FEA99
:1004A80031014FEA02701FBF12F07F4393F07F4F74
:1004B80081F06051704732F07F4208BF704793F077
:1004C8007F4F04BF41F40021704730B54FF460748A
:1004D80001F0004521F000411CE700BF50EA01028D
:1004E80008BF704730B54FF000050AE050EA010236
:1004F80008BF704730B511F0004502D5404261EBA6
:1005080041014FF4806404F132045FEA915C3FF4E6
:10051800D8AE4FF003025FEADC0C18BF03325FEA83
:10052800DC0C18BF033202EBDC02C2F1200300FA34
:1005380003FC20FA02F001FA03FE40EA0E0021FA59
:1005480002F11444BDE600BF70B54FF0FF0C4CF447
:10055800E06C1CEA11541DBF1CEA135594EA0C0FF9
:1005680095EA0C0F00F0DEF82C4481EA030621EA34
:100578004C5123EA4C5350EA013518BF52EA03356F
:1005880041F4801143F4801338D0A0FB02CE4FF021
:100598000005E1FB02E506F00042E0FB03E54FF051
:1005A8000006E1FB03569CF0000F18BF4EF0010E49
:1005B800A4F1FF04B6F5007F64F5407404D25FEA45
:1005C8004E0E6D4146EB060642EAC62141EA5551F8
:1005D8004FEAC52040EA5E504FEACE2EB4F1FD0C3A
:1005E80088BFBCF5E06F1ED8BEF1004F08BF5FEAB8
:1005F800500E50F1000041EB045170BD06F000466A
:1006080046EA010140EA020081EA0301B4EB5C0416
:10061800C2BFD4EB0C0541EA045170BD41F480110E
:100628004FF0000E013C00F3AB8014F1360FDEBF33
:10063800002001F0004170BDC4F10004203C35DA0F
:100648000C341BDC04F11404C4F1200500FA05F392
:1006580020FA04F001FA05F240EA020001F0004233
:1006680021F0004110EBD37021FA04F642EB0601A9
:100678005EEA430E08BF20EAD37070BDC4F10C04D3
:10068800C4F1200500FA04F320FA05F001FA04F297
:1006980040EA020001F0004110EBD37041F1000183
:1006A8005EEA430E08BF20EAD37070BDC4F120058E
:1006B80000FA05F24EEA020E20FA04F301FA05F2F6
:1006C80043EA020321FA04F001F0004121FA04F29E
:1006D80020EA020000EBD3705EEA430E08BF20EA6E
:1006E800D37070BD94F0000F0FD101F000464000A8
:1006F80041EB010111F4801F08BF013CF7D041EA2A
:10070800060195F0000F18BF704703F0004652002D
:1007180043EB030313F4801F08BF013DF7D043EAFE
:100728000603704794EA0C0F0CEA135518BF95EAB4
:100738000C0F0CD050EA410618BF52EA4306D1D13B
:1007480081EA030101F000414FF0000070BD50EA5A
:10075800410606BF1046194652EA430619D094EAE4
:100768000C0F02D150EA013613D195EA0C0F05D1CE
:1007780052EA03361CBF104619460AD181EA030122
:1007880001F0004141F0FE4141F470014FF00000DA
:1007980070BD41F0FE4141F4780170BD70B54FF075
:1007A800FF0C4CF4E06C1CEA11541DBF1CEA1355F5
:1007B80094EA0C0F95EA0C0F00F0A7F8A4EB0504D7
:1007C80081EA030E52EA03354FEA013100F08880CE
:1007D8004FEA03334FF0805545EA131343EA126397
:1007E8004FEA022245EA111545EA10654FEA00264C
:1007F8000EF000419D4208BF964244F1FD0404F505
:10080800407402D25B084FEA3202B61A65EB030560
:100818005B084FEA32024FF480104FF4002CB6EB1D
:10082800020E75EB030E22BFB61A754640EA0C009D
:100838005B084FEA3202B6EB020E75EB030E22BFDD
:10084800B61A754640EA5C005B084FEA3202B6EB1E
:10085800020E75EB030E22BFB61A754640EA9C00DD
:100868005B084FEA3202B6EB020E75EB030E22BFAD
:10087800B61A754640EADC0055EA060E18D04FEA6B
:10088800051545EA16754FEA06164FEAC30343EA0B
:1008980052734FEAC2025FEA1C1CC0D111F4801FD8
:1008A8000BD141EA00014FF000004FF0004CB6E7D1
:1008B80011F4801F04BF01430020B4F1FD0C88BF70
:1008C800BCF5E06F3FF6AFAEB5EB030C04BFB6EB7B
:1008D800020C5FEA500C50F1000041EB045170BD6E
:1008E8000EF0004E4EEA113114EB5C04C2BFD4EB9B
:1008F8000C0541EA045170BD41F480114FF0000E1F
:10090800013C90E645EA060E8DE60CEA135594EA9A
:100918000C0F08BF95EA0C0F3FF43BAF94EA0C0F9D
:100928000AD150EA01347FF434AF95EA0C0F7FF412
:1009380025AF104619462CE795EA0C0F06D152EA66
:1009480003353FF4FDAE1046194622E750EA41064A
:1009580018BF52EA43067FF4C5AE50EA41047FF45B
:100968000DAF52EA43057FF4EBAE12E74FF0FF3CC0
:1009780006E000BF4FF0010C02E000BF4FF0010C91
:100988004DF804CD4FEA410C7FEA6C5C4FEA430C0A
:1009980018BF7FEA6C5C1BD001B050EA410C0CBF59
:1009A80052EA430C91EA030F02BF90EA020F0020BB
:1009B800704710F1000F91EA030F58BF994208BF22
:1009C80090422CBFD8176FEAE37040F001007047DF
:1009D8004FEA410C7FEA6C5C02D150EA013C07D136
:1009E8004FEA430C7FEA6C5CD6D152EA033CD3D081
:1009F8005DF8040B704700BF8446104662468C467B
:100A08001946634600E000BF01B5FFF7B7FF0028AD
:100A180048BF10F1000F01BD4DF808EDFFF7F4FFD6
:100A28000CBF012000205DF808FB00BF4DF808ED61
:100A3800FFF7EAFF34BF012000205DF808FB00BF84
:100A48004DF808EDFFF7E0FF94BF012000205DF8A6
:100A580008FB00BF4DF808EDFFF7CEFF94BF01205B
:100A680000205DF808FB00BF4DF808EDFFF7C4FF54
:100A780034BF012000205DF808FB00BF4FEA410C9D
:100A88007FEA6C5C02D150EA013C0AD14FEA430C80
:100A98007FEA6C5C02D152EA033C02D14FF00000BD
:100AA80070474FF0010070474A0011D212F500124A
:100AB80011D20DD56FF47873B3EB62520ED44FEAAE
:100AC800C12343F0004343EA505323FA02F070472E
:100AD8004FF00000704750EA013002D14FF0FF306C
:100AE80070474FF00000704780B485B000AF0346F0
:100AF800FB713D23FB600023BB600CE0BB68012B4E
:100B080003D1FB689B02FB6002E0FB689B01FB6072
:100B1800BB680133BB60FB7903F00303BA689A42F0
:100B2800ECDBFB6818461437BD465DF8047B70475C
:100B380080B584B000AF78600B46FB701346BB707D
:100B4800BB781846FFF786FC02460B4643EC102B91
:100B580000F08AFE51EC100B23A3D3E90023FFF722
:100B68001DFE02460B4610461946FFF79DFF034639
:100B7800FB60FB78072B1FD801A252F823F000BFB7
:100B8800C10B0008A90B0008B10B0008B90B00083D
:100B9800C10B0008A90B0008B10B0008B90B00082D
:100BA800FB689B01FB6007E0FB681B04FB6003E03C
:100BB800FB689B05FB6000BFFB789B08DBB21A460D
:100BC8007B68023253F82220FB789B08DBB2184678
:100BD800FB6842EA03017B68821C43F8221000BFCD
:100BE8001037BD4680BD00BFEF39FAFE422EE63F02
:100BF80080B584B000AF786039603B681B781846D0
:100C0800FFF772FFF8603B681B789B08DBB21A4657
:100C18007B68023253F822203B681B789B08DBB2C2
:100C28001846FB6842EA03017B68821C43F82210DD
:100C380000BF1037BD4680BD80B483B000AF786078
:100C48007B680B4A934206D10A4B1B68094A43F456
:100C58000013136005E0074B1B68064A43F4800342
:100C6800136000BF0C37BD465DF8047B704700BFBA
:100C7800006002403038024080B582B000AF786032
:100C880039603B681B7819467A680B465B000B4451
:100C9800DB00134403F1100213686FF300031360C1
:100CA80000BF3B681B7819467A680B465B000B440B
:100CB800DB00134410331B68C3F30003DBB2002BC3
:100CC800EFD139687868FFF793FF3B685A783B683B
:100CD8001B781846134603F00703D9B27A6803460F
:100CE8005B000344DB00134403F11002136861F353
:100CF8005B6313603B681B7818463B6859887A68C1
:100D080003465B000344DB00134403F110025368FD
:100D180061F30F0353603B681B781A463B685968B8
:100D28007868013213465B001344DB000344196002
:100D38003B681B781A463B68996878680132134605
:100D48005B001344DB000344043319603B681A7BDF
:100D58003B681B781846134603F00303D9B27A6838
:100D680003465B000344DB00134403F110021368DD
:100D780061F3114313603B685A7B3B681B78184644
:100D8800134603F00303D9B27A6803465B000344B1
:100D9800DB00134403F11002136861F38713136037
:100DA8003B689A7B3B681B781846134603F001039F
:100DB800D9B27A6803465B000344DB00134403F1AD
:100DC8002002536861F3820353603B685A7D3B6895
:100DD8001B781846134603F00103D9B27A68034614
:100DE8005B000344DB00134403F11002136861F352
:100DF800451313603B689B7B012B30D13B685A7CC1
:100E08003B681B7C9A4269D13B685A7C3B681B78DB
:100E18001846134603F00303D9B27A6803465B0009
:100E28000344DB00134403F11002136861F34E33EB
:100E380013603B681A7C3B681B781846134603F01E
:100E48000303D9B27A6803465B000344DB0013440A
:100E580003F11002136861F3CC2313603EE03B6892
:100E68005A7C3B681B781846134603F00303D9B233
:100E78007A6803465B000344DB00134403F1100265
:100E8800136861F34E3313603B681A7C3B681B7828
:100E98001846134603F00303D9B27A6803465B0089
:100EA8000344DB00134403F11002136861F3CC23FD
:100EB80013603B68DA7B3B681B781846134603F0DF
:100EC8000303D9B27A6803465B000344DB0013448A
:100ED80003F12002536861F3010353603B689A7C75
:100EE8003B681B781846134603F00103D9B27A68A9
:100EF80003465B000344DB00134403F1100213684C
:100F080061F3492313603B68DA7C3B681B78184619
:100F1800134603F00103D9B27A6803465B00034421
:100F2800DB00134403F11002136861F38A23136092
:100F38003B681A7D3B681B781846134603F001038B
:100F4800D9B27A6803465B000344DB00134403F11B
:100F58001002136861F3CF3313603B68DA7D3B6896
:100F68001B781846134603F00303D9B27A68034680
:100F78005B000344DB00134403F11002136861F3C0
:100F8800D85313603B689A7D3B681B781846134614
:100F980003F00303D9B27A6803465B000344DB001D
:100FA800134403F11002136861F3565313603B684E
:100FB8001A7F3B681B781846134603F00103D9B221
:100FC8007A6803465B000344DB00134403F1100214
:100FD800136861F3410313603B681A7E3B681B7812
:100FE8001846134603F00103D9B27A6803465B003A
:100FF8000344DB00134403F11002136861F3041384
:1010080013603B685A7E3B681B781846134603F00A
:101018000103D9B27A6803465B000344DB0013443A
:1010280003F11002136861F3C30313603B68DA7EAF
:101038003B681B781846134603F00103D9B27A6857
:1010480003465B000344DB00134403F110021368FA
:1010580061F3820313603B689A7E3B681B781846ED
:10106800134603F00103D9B27A6803465B000344D0
:10107800DB00134403F12002536861F3C713536084
:1010880000BF0837BD4680BD80B483B000AF78602C
:1010980039603B681B7819467A680B465B000B443D
:1010A800DB00134403F11002136843F001031360DB
:1010B80000BF0C37BD465DF8047B704780B584B02F
:1010C80000AF78600B46FB70FB781846FFF70CFD05
:1010D8000246FB789B08DBB219467B6853F821303F
:1010E8001340FB60FB78072B1ED801A252F823F0AF
:1010F80031110008191100082111000829110008F0
:1011080031110008191100082111000829110008DF
:10111800FB689B09FB6007E0FB681B0CFB6003E0B6
:10112800FB689B0DFB6000BFFB6803F00103D9B2AD
:10113800184A137861F300031370FB689B0803F0E7
:101148000103D9B2134A137861F341031370FB68A2
:10115800DB0803F00103D9B20E4A137861F3820366
:101168001370FB681B0903F00103D9B2094A13780D
:1011780061F3C3031370FB685B0903F00103D9B281
:10118800044A137861F304131370024B184610379E
:10119800BD4680BD8800002080B500AF00F0A0FAF1
:1011A80000BF80BD80B483B000AF0346FB71084B1D
:1011B8001B68FA79012101FA02F21146044A0B432D
:1011C800136000BF0C37BD465DF8047B704700BF55
:1011D8003038024080B483B000AF786008461146CA
:1011E8001A460346FB700B46BB7013467B707B6840
:1011F8001A68FB785B00032101FA03F3DB43194605
:101208007B680A401A607B681A68B978FB785B00CB
:1012180001FA03F319467B680A431A607B680433B2
:101228001B68FA78012101FA02F2D24311467A6862
:1012380004320B4013607B6804331B687A7802F031
:101248000101FA7801FA02F211467A6804320B4376
:1012580013607B680C331B68FA785200032101FA8B
:1012680002F2D24311467A680C320B4013607B6855
:101278000C331B687A78521002F00301FA78520096
:1012880001FA02F211467A680C320B43136000BF70
:101298000C37BD465DF8047B704780B485B000AF5D
:1012A80078600B46FB701346BB707B681B68FA7846
:1012B8005200032101FA02F21A40FB785B0022FA7D
:1012C80003F3012B1FD1BB78002B0CD07B681433A0
:1012D8001B68FA78012101FA02F211467A68143281
:1012E8000B4313600CE07B6814331B68FA78012108
:1012F80001FA02F2D24311467A6814320B401360A5
:101308000023FB7301E00123FB73FB7B18461437B2
:10131800BD465DF8047B704780B483B000AF786049
:1013280039607B6803F1382340339B001A68012138
:101338003B6801FA03F318467B6803F1382340330E
:101348009B00194642EA00030B6000BF0C37BD46FC
:101358005DF8047B7047000080B582B000AF1DE0E7
:10136800012200211248FFF798FF00237B6002E06A
:101378007B6801337B607B680E4A9342F8DD00226C
:1013880000210B48FFF789FF00233B6002E03B6820
:1013980001333B603B68074A9342F8DD064B1B78F4
:1013A800002BDDD100BF00BF0837BD4680BD00BFA0
:1013B80000000240DF9304000000002080B582B0E6
:1013C80000AF002200211748FFF767FF0122012123
:1013D8001448FFF762FF002202211248FFF75DFF61
:1013E800002203210F48FFF758FF002204210D486F
:1013F800FFF753FF002205210A48FFF74EFF00239D
:101408007B6002E07B6801337B607B68064A93421D
:10141800F8DD002201210348FFF73FFF00BF08372E
:10142800BD4680BD000002403F420F0080B582B03B
:1014380000AF002200211748FFF72FFF00220121EB
:101448001448FFF72AFF002202211248FFF725FF60
:10145800012203210F48FFF720FF002204210D4835
:10146800FFF71BFF002205210A48FFF716FF00239C
:101478007B6002E07B6801337B607B68064A9342AD
:10148800F8DD002203210348FFF707FF00BF0837F4
:10149800BD4680BD000002403F420F0080B582B0CB
:1014A80000AF002200211748FFF7F7FE00220121B4
:1014B8001448FFF7F2FE012202211248FFF7EDFE61
:1014C800002203210F48FFF7E8FE002204210D48FF
:1014D800FFF7E3FE002205210A48FFF7DEFE00239E
:1014E8007B6002E07B6801337B607B68064A93423D
:1014F800F8DD002202210348FFF7CFFE00BF0837BE
:10150800BD4680BD000002403F420F0080B582B05A
:1015180000AF002200211748FFF7BFFE002201217B
:101528001448FFF7BAFE002202211248FFF7B5FE61
:10153800002203210F48FFF7B0FE012204210D48C5
:10154800FFF7ABFE002205210A48FFF7A6FE00239D
:101558007B6002E07B6801337B607B68064A9342CC
:10156800F8DD002204210348FFF797FE00BF083783
:10157800BD4680BD000002403F420F0080B582B0EA
:1015880000AF002200211748FFF787FE0022012143
:101598001448FFF782FE002202211248FFF77DFE61
:1015A800002203210F48FFF778FE002204210D488E
:1015B800FFF773FE012205210A48FFF76EFE00239C
:1015C8007B6002E07B6801337B607B68064A93425C
:1015D800F8DD002205210348FFF75FFE00BF08374A
:1015E800BD4680BD000002403F420F0080B588B074
:1015F80000AF00233B7000237B701E4BBB601E4B6B
:101608007B600023BB7302237B7364237B800223EC
:101618007B7402233B740123FB740123BB740023F6
:10162800FB7500237B750023BB7503233B730323E2
:10163800FB7301233B760123FB760123BB76012351
:101648003B7700237B7618210120FFF765FE0B48C6
:10165800FFF7F2FA3B4619460848FFF70DFB3B46F1
:1016680019460648FFF710FDFFF776FE00BF203742
:10167800BD4680BD8C0000201C0200200064024092
:1016880080B582B000AF01237B600CE07B686422E8
:1016980002FB03F27B68013B11460F4A42F8231014
:1016A8007B6801337B607B68642BEFDD0020FFF7EC
:1016B80079FD00233B6009E03B68D9B20023012291
:1016C8000648FFF787FD3B6801333B603B68052B05
:1016D800F2DDFFF78BFFFEE71C020020000002404E
:1016E80080B582B000AF2C4B00221A7000212B4825
:1016F800FFF7E4FC78607B681B7803F01003DBB22B
:10170800002B19D0FFF75AFE00233B603B68632B80
:101718000CDC234A3B6852F8232022493B6851F8E5
:1017280023309A4201D0FFF781FE00BF202200211A
:101738001A48FFF7FDF92BE07B681B7803F00403D8
:10174800DBB2002B07D0FFF7A9FE082200211348BF
:10175800FFF7EEF91CE07B681B7803F00103DBB2AE
:10176800002B07D0FFF7D2FE012200210B48FFF71C
:10177800DFF90DE07B681B7803F00203DBB2002B76
:1017880006D0FFF7FBFE042200210448FFF7D0F93A
:1017980000BF0837BD4680BD00000020006402403D
:1017A8001C0200208C00002080B400AF064BD3F848
:1017B8008830054A43F47003C2F8883000BFBD463C
:1017C8005DF8047B704700BF00ED00E0DFF834D01F
:1017D8000D480E490E4A002302E0D458C450043381
:1017E800C4188C42F9D30B4A0B4C002301E0136058
:1017F8000432A242FBD3FFF7D7FF00F011F8FFF73E
:101808003FFF704700000120000000206C0000200E
:10181800B81C00086C000020AC030020FEE70000A4
:1018280070B50D4D0D4C641BA4100026A64209D1BD
:101838000B4D0C4C00F02AFA641BA4100026A6429B
:1018480005D170BD55F8043B98470136EEE755F8C9
:10185800043B98470136F2E7B01C0008B01C0008AA
:10186800B01C0008B41C000838B52DED028B55ECEF
:10187800104B00F041F81E4BB0EE408AF0EE608A43
:1018880093F9003001331AD022462B4620462946C8
:10189800FFF7F4F898B90022002320462946FFF7FD
:1018A800E3F860B90022002320462946FFF7B4F880
:1018B80060B100F0E5F99FED0C8B22230360B0EED8
:1018C800480AF0EE680ABDEC028B38BD00F0D8F982
:1018D800BDEC028B21230360BDE83840054800F0C9
:1018E800C7B900BFAFF30080000000000000F0FFA0
:1018F80068000020AC1C00082DE9F04F51EC100BDB
:101908002DED048BB1F5801F83B00D4629DA21F047
:101918000043034310EE102A0CD1CF4900220023C4
:101928000020FEF73BFF41EC100B03B0BDEC048B2D
:10193800BDE8F08F002905DA0B46FEF74DFC0022C2
:101948000023EEE7C54B0022FEF7FEFD6FF03503DE
:101958000D46C34A954206DD02460B46FEF73EFC9D
:10196800E1E70023F5E72C15A4F2FF34C5F31305CE
:101978001C4405F5152303F6647303F4801383F000
:101988007F5282F4401242EA050104EB135400220C
:10199800B44BFEF721FCAB1CC3F31303022B8246A6
:1019A8008B464FF0000253DC0023FFF735F8D0B127
:1019B800002C00F022812046FEF75CFD90A3D3E9BD
:1019C800002306460F46FEF7BFFD8FA3D3E9002389
:1019D80004460D4630463946FEF7B6FD02460B462C
:1019E80020462946BAE78AA3D3E900235046594638
:1019F800FEF7AAFD02460B4600209B49FEF7ECFBCA
:101A0800524606460F465B4650465946FEF79CFD31
:101A180002460B4630463946FEF796FD06460F4607
:101A280014B932463B46A2E02046FEF723FD74A3D4
:101A3800D3E9002380468946FEF786FD72A3D3E9E1
:101A4800002304460D4640464946FEF77DFDA7E0C3
:101A58004FF08043FEF7C2FB02460B4650465946FC
:101A6800FEF79CFE41EC180B2046FEF703FD53ECF5
:101A7800182B41EC190B51EC180BFEF765FDA5F579
:101A8800C223A3F27A43019302460B468046894655
:101A9800FEF75AFD60A3D3E9002306460F46FEF77A
:101AA80053FD5FA3D3E90023FEF798FB32463B467C
:101AB800FEF74AFD5CA3D3E90023FEF78FFB32460D
:101AC8003B46FEF741FD5AA3D3E90023FEF786FB08
:101AD80042464B46FEF738FD57A3D3E9002380461C
:101AE800894630463946FEF72FFD55A3D3E9002332
:101AF800FEF774FB32463B46FEF726FD52A3D3E9B8
:101B08000023FEF76BFB32463B46FEF71DFD0B46F6
:101B1800024649464046FEF761FBC5F5D725019BBD
:101B280051351D43002D8046894648DD4E4B002225
:101B380050465946FEF708FD52465B46FEF704FD3F
:101B480002460B4606460F4640464946FEF746FB08
:101B580053EC182BFEF7F8FC8046894664B9024618
:101B68000B4630463946FEF737FB02460B465046D1
:101B78005946FEF731FBD6E621A3D3E9002351EC01
:101B8800190BFEF7E1FC20A3D3E9002304460D4618
:101B980051EC190BFEF7D8FC42464B46FEF71EFBEC
:101BA80002460B4630463946FEF716FB52465B4660
:101BB800FEF712FB02460B4620462946D9E70246A5
:101BC8000B4650465946FEF707FB53EC182BFEF719
:101BD800BBFC06460F46002C3FF423AF08A3D3E90D
:101BE800002351EC190BFEF7AFFC07A3D3E9002340
:101BF80004460D4651EC190B27E79FED150B94E6AB
:101C08000000E0FE422EE63F763C7935EF39EA3DAA
:101C1800555555555555D53F44523EDF12F1C23FF3
:101C2800DE03CB966446C73F599322942449D23F9A
:101C3800935555555555E53F9FC678D0099AC33FEA
:101C4800AF788E1DC571CC3F04FA97999999D93F01
:101C58000000000000000000000050C300005043D6
:101C6800FFFFEF7F0000F03F0000E03F00000000B2
:101C78009FED010B704700BF000000000000F87FD7
:101C8800014B1868704700BF04000020F8B500BF7A
:101C9800F8BC08BC9E467047F8B500BFF8BC08BC45
:041CA8009E4670479D
:041CAC000000000034
:041CB000BD0100086A
:041CB400990100088A
:101CB80001000000080000200000000000000000F3
:101CC800000000000000000000000000000000000C
:101CD80000000000000000000000000000000000FC
:101CE80000000000000000000000000000000000EC
:101CF80000000000000000000000000000000000DC
:101D080000000000000000000000000000000000CB
:0C1D18000000000000000000FF000000C0
:04000005080017D503
:00000001FF
