:020000040800F2
:1000000000000120ED0C00083D0D00083D0D00082A
:100010003D0D00083D0D00083D0D000800000000EA
:100020000000000000000000000000003D0D00087E
:100030003D0D0008000000003D0D00083D0D0008CA
:100040003D0D00083D0D00083D0D00083D0D000868
:100050003D0D00083D0D00083D0D00083D0D000858
:100060003D0D00083D0D00083D0D00083D0D000848
:100070003D0D00083D0D00083D0D00083D0D000838
:100080003D0D00083D0D00083D0D0008000000007A
:100090000000000000000000000000003D0D00080E
:1000A0003D0D00083D0D00083D0D00083D0D000808
:1000B0003D0D00083D0D00083D0D00083D0D0008F8
:1000C0003D0D00083D0D00083D0D00083D0D0008E8
:1000D0003D0D00083D0D00083D0D0008000000002A
:1000E0003D0D00083D0D00083D0D0008000000001A
:1000F0000000000000000000000000003D0D0008AE
:10010000000000003D0D00083D0D00083D0D0008F9
:1001100000000000000000000000000000000000DF
:10012000090C00083D0D00083D0D00083D0D0008BC
:100130003D0D00080000000000000000000000006D
:100140000000000000000000000000003D0D00085D
:100150003D0D00083D0D00083D0D00083D0D000857
:100160003D0D00083D0D00080000000000000000EB
:10017000000000000000000000000000000000007F
:10018000000000003D0D000800000000000000001D
:040190003D0D000819
:1001940010B5054C237833B9044B13B10448AFF3BD
:1001A40000800123237010BD040000200000000023
:1001B400880D000808B5034B1BB103490348AFF38E
:1001C400008008BD0000000008000020880D000821
:1001D40080B485B000AF786039603D23FB600023B4
:1001E400BB600CE0BB68022B03D0FB689B01FB6087
:1001F40002E0FB689B02FB60BB680133BB603B68A9
:100204001B7803F00303BA689A42EBDB3B681B7864
:100214009B08DBB21A467B68023253F82220FB6843
:10022400396809788908C9B2084642EA03017B683B
:10023400821C43F8221000BF1437BD465DF8047BCE
:100244007047000080B483B000AF78607B680B4ACD
:10025400934206D10A4B1B68094A43F40013136006
:1002640005E0074B1B68064A43F48003136000BF94
:100274000C37BD465DF8047B704700BF0060024048
:100284003038024080B582B000AF786039603B6896
:100294001B7819467A680B465B000B44DB00134459
:1002A40003F1100213686FF30003136000BF3B688F
:1002B4001B7819467A680B465B000B44DB00134439
:1002C40010331B68C3F30003DBB2002BEFD1396892
:1002D4007868FFF77DFF3B685A783B681B781846BF
:1002E400134603F00703D9B27A6803465B0003445C
:1002F400DB00134403F11002136861F35B631360C2
:100304003B681B7818463B6859887A6803465B004B
:100314000344DB00134403F11002536861F30F0339
:1003240053603B681B781A463B6859687868013209
:1003340013465B001344DB00034419603B681B78DD
:100344001A463B6899687868013213465B00134487
:10035400DB000344043319603B681A7B3B681B7859
:100364001846134603F00303D9B27A6803465B00C8
:100374000344DB00134403F11002136861F31143D7
:1003840013603B685A7B3B681B781846134603F09E
:100394000303D9B27A6803465B000344DB001344C9
:1003A40003F11002136861F3871313603B689A7BAF
:1003B4003B681B781846134603F00103D9B27A68E8
:1003C40003465B000344DB00134403F1200253683B
:1003D40061F3820353603B685A7D3B681B7818467F
:1003E400134603F00103D9B27A6803465B00034461
:1003F400DB00134403F11002136861F34513136027
:100404003B689B7B012B30D13B685A7C3B681B7C4F
:100414009A4269D13B685A7C3B681B78184613465C
:1004240003F00303D9B27A6803465B000344DB009C
:10043400134403F11002136861F34E3313603B68F5
:100444001A7C3B681B781846134603F00303D9B2A1
:100454007A6803465B000344DB00134403F1100293
:10046400136861F3CC2313603EE03B685A7C3B681D
:100474001B781846134603F00303D9B27A6803467F
:100484005B000344DB00134403F11002136861F3BF
:100494004E3313603B681A7C3B681B78184613463E
:1004A40003F00303D9B27A6803465B000344DB001C
:1004B400134403F11002136861F3CC2313603B6807
:1004C400DA7B3B681B781846134603F00303D9B262
:1004D4007A6803465B000344DB00134403F1200203
:1004E400536861F3010353603B689A7C3B681B7853
:1004F4001846134603F00103D9B27A6803465B0039
:100504000344DB00134403F11002136861F349232D
:1005140013603B68DA7C3B681B781846134603F08B
:100524000103D9B27A6803465B000344DB00134439
:1005340003F11002136861F38A2313603B681A7D88
:100544003B681B781846134603F00103D9B27A6856
:1005540003465B000344DB00134403F110021368F9
:1005640061F3CF3313603B68DA7D3B681B78184630
:10057400134603F00303D9B27A6803465B000344CD
:10058400DB00134403F11002136861F3D8531360C2
:100594003B689A7D3B681B781846134603F00303B7
:1005A400D9B27A6803465B000344DB00134403F1C9
:1005B4001002136861F3565313603B681A7F3B685B
:1005C4001B781846134603F00103D9B27A68034630
:1005D4005B000344DB00134403F11002136861F36E
:1005E400410313603B681A7E3B681B781846134628
:1005F40003F00103D9B27A6803465B000344DB00CD
:10060400134403F11002136861F3041313603B688D
:100614005A7E3B681B781846134603F00103D9B28F
:100624007A6803465B000344DB00134403F11002C1
:10063400136861F3C30313603B68DA7E3B681B787D
:100644001846134603F00103D9B27A6803465B00E7
:100654000344DB00134403F11002136861F38203C3
:1006640013603B689A7E3B681B781846134603F078
:100674000103D9B27A6803465B000344DB001344E8
:1006840003F12002536861F3C713536000BF0837B6
:10069400BD4680BD80B483B000AF786039603B68EC
:1006A4001B7819467A680B465B000B44DB00134445
:1006B40003F11002136843F00103136000BF0C3709
:1006C400BD465DF8047B704780B483B000AF034639
:1006D400FB71084B1B68FA79012101FA02F21146F9
:1006E400044A0B43136000BF0C37BD465DF8047B1E
:1006F400704700BF3038024080B483B000AF7860E8
:10070400084611461A460346FB700B46BB70134657
:100714007B707B681A68FB785B00032101FA03F3A2
:10072400DB4319467B680A401A607B681A68B9780B
:10073400FB785B0001FA03F319467B680A431A60ED
:100744007B6804331B68FA78012101FA02F2D24370
:1007540011467A6804320B4013607B6804331B68CB
:100764007A7802F00101FA7801FA02F211467A6805
:1007740004320B4313607B680C331B68FA78520015
:10078400032101FA02F2D24311467A680C320B407B
:1007940013607B680C331B687A78521002F00301F3
:1007A400FA78520001FA02F211467A680C320B43CD
:1007B400136000BF0C37BD465DF8047B704780B4FE
:1007C40085B000AF78600B46FB701346BB707B6846
:1007D4001B68FA785200032101FA02F21A40FB78EE
:1007E4005B0022FA03F3012B1FD1BB78002B0CD042
:1007F4007B6814331B68FA78012101FA02F211466E
:100804007A6814320B4313600CE07B6814331B6862
:10081400FA78012101FA02F2D24311467A681432BD
:100824000B4013600023FB7301E00123FB73FB7B8C
:1008340018461437BD465DF8047B704780B483B016
:1008440000AF786039607B6803F1382340339B0044
:100854001A6801213B6801FA03F318467B6803F127
:10086400382340339B00194642EA00030B6000BF63
:100874000C37BD465DF8047B7047000080B582B03C
:1008840000AF1DE0012200211248FFF798FF00236A
:100894007B6002E07B6801337B607B680E4A934295
:1008A400F8DD002200210B48FFF789FF00233B609D
:1008B40002E03B6801333B603B68074A9342F8DD42
:1008C400064B1B78002BDDD100BF00BF0837BD46A7
:1008D40080BD00BF00000240DF9304000000002040
:1008E40080B582B000AF002200211748FFF767FFF0
:1008F400012201211448FFF762FF0022022112485D
:10090400FFF75DFF002203210F48FFF758FF002285
:1009140004210D48FFF753FF002205210A48FFF781
:100924004EFF00237B6002E07B6801337B607B68C1
:10093400064A9342F8DD002201210348FFF73FFFF6
:1009440000BF0837BD4680BD000002403F420F0093
:1009540080B582B000AF002200211748FFF72FFFB7
:10096400002201211448FFF72AFF00220221124825
:10097400FFF725FF012203210F48FFF720FF002284
:1009840004210D48FFF71BFF002205210A48FFF749
:1009940016FF00237B6002E07B6801337B607B6889
:1009A400064A9342F8DD002203210348FFF707FFBC
:1009B40000BF0837BD4680BD000002403F420F0023
:1009C40080B582B000AF002200211748FFF7F7FE80
:1009D400002201211448FFF7F2FE012202211248ED
:1009E400FFF7EDFE002203210F48FFF7E8FE002287
:1009F40004210D48FFF7E3FE002205210A48FFF712
:100A0400DEFE00237B6002E07B6801337B607B6851
:100A1400064A9342F8DD002202210348FFF7CFFE85
:100A240000BF0837BD4680BD000002403F420F00B2
:100A340080B582B000AF002200211748FFF7BFFE47
:100A4400002201211448FFF7BAFE002202211248B5
:100A5400FFF7B5FE002203210F48FFF7B0FE012285
:100A640004210D48FFF7ABFE002205210A48FFF7D9
:100A7400A6FE00237B6002E07B6801337B607B6819
:100A8400064A9342F8DD002204210348FFF797FE4B
:100A940000BF0837BD4680BD000002403F420F0042
:100AA40080B582B000AF002200211748FFF787FE0F
:100AB400002201211448FFF782FE0022022112487D
:100AC400FFF77DFE002203210F48FFF778FE002286
:100AD40004210D48FFF773FE012205210A48FFF7A0
:100AE4006EFE00237B6002E07B6801337B607B68E1
:100AF400064A9342F8DD002205210348FFF75FFE12
:100B040000BF0837BD4680BD000002403F420F00D1
:100B140080B588B000AF00233B7000237B701E4B70
:100B2400BB601E4B7B600023BB7302237B73642377
:100B34007B8002237B7402233B740123FB74012317
:100B4400BB740023FB7500237B750023BB75032353
:100B54003B730323FB7301233B760123FB760123C1
:100B6400BB7601233B7700237B7618210120FFF716
:100B740065FE0B48FFF766FB3B4619460848FFF73E
:100B840081FB3B4619460648FFF784FDFFF776FED6
:100B940000BF2037BD4680BD20000020B0010020EA
:100BA4000064024080B582B000AF01237B600CE09A
:100BB4007B68642202FB03F27B68013B11460F4A07
:100BC40042F823107B6801337B607B68642BEFDD84
:100BD4000020FFF779FD00233B6009E03B68D9B2B0
:100BE400002301220648FFF787FD3B6801333B6081
:100BF4003B68052BF2DDFFF78BFFFEE7B001002019
:100C04000000024080B582B000AF2A4B00221A7067
:100C1400294B1B6803F02003002B1AD0FFF760FE5A
:100C240000237B607B68632B0CDC244A7B6852F8CE
:100C3400232023497B6851F823309A4201D0FFF7DF
:100C440087FE00BF1C4B9B681B4A43F02003936044
:100C54002BE0194B1B6803F00803002B08D0FFF7A7
:100C6400AFFE154B9B68144A43F0080393601CE0E5
:100C7400114B1B6803F00103002B08D0FFF7D8FECB
:100C84000D4B9B680C4A43F0010393600DE00A4B43
:100C94001B6803F00403002B07D0FFF701FF064B8A
:100CA4009B68054A43F00403936000BF0837BD46C0
:100CB40080BD00BF0000002000640240B00100209D
:100CC4002000002080B400AF064BD3F88830054ADA
:100CD40043F47003C2F8883000BFBD465DF8047B5E
:100CE400704700BF00ED00E0DFF834D00D480E4936
:100CF4000E4A002302E0D458C4500433C4188C4272
:100D0400F9D30B4A0B4C002301E013600432A242D6
:100D1400FBD3FFF7D7FF00F011F8FFF743FF70474D
:100D2400000001200000002004000020A80D00089D
:100D34000400002040030020FEE7000070B50D4DC4
:100D44000D4C641BA4100026A64209D10B4D0C4C7B
:100D540000F018F8641BA4100026A64205D170BD4B
:100D640055F8043B98470136EEE755F8043B98479D
:100D74000136F2E7A00D0008A00D0008A00D000840
:100D8400A40D0008F8B500BFF8BC08BC9E46704727
:0C0D9400F8B500BFF8BC08BC9E467047D4
:040DA000B90100088D
:040DA40095010008AD
:040DA8000100000046
:0400000508000CEDF6
:00000001FF
